{"src/L1BossBridge.sol":{"L1BossBridge":{"abi":[{"type":"constructor","inputs":[{"name":"_token","type":"address","internalType":"contract IERC20"}],"stateMutability":"nonpayable"},{"type":"function","name":"DEPOSIT_LIMIT","inputs":[],"outputs":[{"name":"","type":"uint256","internalType":"uint256"}],"stateMutability":"view"},{"type":"function","name":"depositTokensToL2","inputs":[{"name":"from","type":"address","internalType":"address"},{"name":"l2Recipient","type":"address","internalType":"address"},{"name":"amount","type":"uint256","internalType":"uint256"}],"outputs":[],"stateMutability":"nonpayable"},{"type":"function","name":"owner","inputs":[],"outputs":[{"name":"","type":"address","internalType":"address"}],"stateMutability":"view"},{"type":"function","name":"pause","inputs":[],"outputs":[],"stateMutability":"nonpayable"},{"type":"function","name":"paused","inputs":[],"outputs":[{"name":"","type":"bool","internalType":"bool"}],"stateMutability":"view"},{"type":"function","name":"renounceOwnership","inputs":[],"outputs":[],"stateMutability":"nonpayable"},{"type":"function","name":"sendToL1","inputs":[{"name":"v","type":"uint8","internalType":"uint8"},{"name":"r","type":"bytes32","internalType":"bytes32"},{"name":"s","type":"bytes32","internalType":"bytes32"},{"name":"message","type":"bytes","internalType":"bytes"}],"outputs":[],"stateMutability":"nonpayable"},{"type":"function","name":"setSigner","inputs":[{"name":"account","type":"address","internalType":"address"},{"name":"enabled","type":"bool","internalType":"bool"}],"outputs":[],"stateMutability":"nonpayable"},{"type":"function","name":"signers","inputs":[{"name":"account","type":"address","internalType":"address"}],"outputs":[{"name":"isSigner","type":"bool","internalType":"bool"}],"stateMutability":"view"},{"type":"function","name":"token","inputs":[],"outputs":[{"name":"","type":"address","internalType":"contract IERC20"}],"stateMutability":"view"},{"type":"function","name":"transferOwnership","inputs":[{"name":"newOwner","type":"address","internalType":"address"}],"outputs":[],"stateMutability":"nonpayable"},{"type":"function","name":"unpause","inputs":[],"outputs":[],"stateMutability":"nonpayable"},{"type":"function","name":"vault","inputs":[],"outputs":[{"name":"","type":"address","internalType":"contract L1Vault"}],"stateMutability":"view"},{"type":"function","name":"withdrawTokensToL1","inputs":[{"name":"to","type":"address","internalType":"address"},{"name":"amount","type":"uint256","internalType":"uint256"},{"name":"v","type":"uint8","internalType":"uint8"},{"name":"r","type":"bytes32","internalType":"bytes32"},{"name":"s","type":"bytes32","internalType":"bytes32"}],"outputs":[],"stateMutability":"nonpayable"},{"type":"event","name":"Deposit","inputs":[{"name":"from","type":"address","indexed":false,"internalType":"address"},{"name":"to","type":"address","indexed":false,"internalType":"address"},{"name":"amount","type":"uint256","indexed":false,"internalType":"uint256"}],"anonymous":false},{"type":"event","name":"OwnershipTransferred","inputs":[{"name":"previousOwner","type":"address","indexed":true,"internalType":"address"},{"name":"newOwner","type":"address","indexed":true,"internalType":"address"}],"anonymous":false},{"type":"event","name":"Paused","inputs":[{"name":"account","type":"address","indexed":false,"internalType":"address"}],"anonymous":false},{"type":"event","name":"Unpaused","inputs":[{"name":"account","type":"address","indexed":false,"internalType":"address"}],"anonymous":false},{"type":"error","name":"ECDSAInvalidSignature","inputs":[]},{"type":"error","name":"ECDSAInvalidSignatureLength","inputs":[{"name":"length","type":"uint256","internalType":"uint256"}]},{"type":"error","name":"ECDSAInvalidSignatureS","inputs":[{"name":"s","type":"bytes32","internalType":"bytes32"}]},{"type":"error","name":"EnforcedPause","inputs":[]},{"type":"error","name":"ExpectedPause","inputs":[]},{"type":"error","name":"L1BossBridge__CallFailed","inputs":[]},{"type":"error","name":"L1BossBridge__DepositLimitReached","inputs":[]},{"type":"error","name":"L1BossBridge__Unauthorized","inputs":[]},{"type":"error","name":"OwnableInvalidOwner","inputs":[{"name":"owner","type":"address","internalType":"address"}]},{"type":"error","name":"OwnableUnauthorizedAccount","inputs":[{"name":"account","type":"address","internalType":"address"}]},{"type":"error","name":"ReentrancyGuardReentrantCall","inputs":[]},{"type":"error","name":"SafeERC20FailedOperation","inputs":[{"name":"token","type":"address","internalType":"address"}]}],"userdoc":{},"devdoc":{},"evm":{"bytecode":{"object":"60c060405269152d02c7e14af68000006002553480156200001e575f80fd5b50604051620025713803806200257183398181016040528101906200004491906200034c565b335f73ffffffffffffffffffffffffffffffffffffffff168173ffffffffffffffffffffffffffffffffffffffff1603620000b8575f6040517f1e4fbdf7000000000000000000000000000000000000000000000000000000008152600401620000af91906200038d565b60405180910390fd5b620000c9816200020560201b60201c565b50600180819055508073ffffffffffffffffffffffffffffffffffffffff1660808173ffffffffffffffffffffffffffffffffffffffff16815250506080516040516200011690620002c6565b6200012291906200040f565b604051809103905ff0801580156200013c573d5f803e3d5ffd5b5073ffffffffffffffffffffffffffffffffffffffff1660a08173ffffffffffffffffffffffffffffffffffffffff168152505060a05173ffffffffffffffffffffffffffffffffffffffff16631f64e71f307fffffffffffffffffffffffffffffffffffffffffffffffffffffffffffffffff6040518363ffffffff1660e01b8152600401620001cf92919062000444565b5f604051808303815f87803b158015620001e7575f80fd5b505af1158015620001fa573d5f803e3d5ffd5b50505050506200046f565b5f805f9054906101000a900473ffffffffffffffffffffffffffffffffffffffff169050815f806101000a81548173ffffffffffffffffffffffffffffffffffffffff021916908373ffffffffffffffffffffffffffffffffffffffff1602179055508173ffffffffffffffffffffffffffffffffffffffff168173ffffffffffffffffffffffffffffffffffffffff167f8be0079c531659141344cd1fd0a4f28419497f9722a3daafe3b4186f6b6457e060405160405180910390a35050565b61089c8062001cd583390190565b5f80fd5b5f73ffffffffffffffffffffffffffffffffffffffff82169050919050565b5f6200030382620002d8565b9050919050565b5f6200031682620002f7565b9050919050565b62000328816200030a565b811462000333575f80fd5b50565b5f8151905062000346816200031d565b92915050565b5f60208284031215620003645762000363620002d4565b5b5f620003738482850162000336565b91505092915050565b6200038781620002f7565b82525050565b5f602082019050620003a25f8301846200037c565b92915050565b5f819050919050565b5f620003d1620003cb620003c584620002d8565b620003a8565b620002d8565b9050919050565b5f620003e482620003b1565b9050919050565b5f620003f782620003d8565b9050919050565b6200040981620003eb565b82525050565b5f602082019050620004245f830184620003fe565b92915050565b5f819050919050565b6200043e816200042a565b82525050565b5f604082019050620004595f8301856200037c565b62000468602083018462000433565b9392505050565b60805160a05161181a620004bb5f395f8181610465015281816105ea015281816106ac01526107d901525f8181610443015281816105ae015281816106ce01526107fd015261181a5ff3fe608060405234801561000f575f80fd5b50600436106100e8575f3560e01c80638456cb591161008a578063bfd4be6411610064578063bfd4be64146101e8578063f2fde38b14610204578063fbfa77cf14610220578063fc0c546a1461023e576100e8565b80638456cb59146101a25780638da5cb5b146101ac5780638decfa77146101ca576100e8565b80633f4ba83a116100c65780633f4ba83a146101405780635c975abb1461014a578063715018a614610168578063736c0d5b14610172576100e8565b8063224cfa2b146100ec57806331cb6105146101085780633d0d162814610124575b5f80fd5b6101066004803603810190610101919061107e565b61025c565b005b610122600480360381019061011d919061118d565b6103db565b005b61013e600480360381019061013991906111fe565b61043b565b005b61014861050a565b005b61015261051c565b60405161015f9190611284565b60405180910390f35b610170610531565b005b61018c6004803603810190610187919061129d565b610544565b6040516101999190611284565b60405180910390f35b6101aa610561565b005b6101b4610573565b6040516101c191906112d7565b60405180910390f35b6101d261059a565b6040516101df91906112ff565b60405180910390f35b61020260048036038101906101fd9190611318565b6105a0565b005b61021e6004803603810190610219919061129d565b610753565b005b6102286107d7565b60405161023591906113c3565b60405180910390f35b6102466107fb565b60405161025391906113fc565b60405180910390f35b61026461081f565b61026c610865565b5f61028861028083805190602001206108a6565b8686866108d9565b905060035f8273ffffffffffffffffffffffffffffffffffffffff1673ffffffffffffffffffffffffffffffffffffffff1681526020019081526020015f205f9054906101000a900460ff1661030a576040517fe9fbe2f400000000000000000000000000000000000000000000000000000000815260040160405180910390fd5b5f805f8480602001905181019061032191906114fa565b9250925092505f8373ffffffffffffffffffffffffffffffffffffffff16838360405161034e91906115aa565b5f6040518083038185875af1925050503d805f8114610388576040519150601f19603f3d011682016040523d82523d5f602084013e61038d565b606091505b50509050806103c8576040517f2645fa0000000000000000000000000000000000000000000000000000000000815260040160405180910390fd5b50505050506103d5610907565b50505050565b6103e3610910565b8060035f8473ffffffffffffffffffffffffffffffffffffffff1673ffffffffffffffffffffffffffffffffffffffff1681526020019081526020015f205f6101000a81548160ff0219169083151502179055505050565b6105038383837f00000000000000000000000000000000000000000000000000000000000000005f7f00000000000000000000000000000000000000000000000000000000000000008b8b604051602401610498939291906115c0565b6040516020818303038152906040526323b872dd60e01b6020820180517bffffffffffffffffffffffffffffffffffffffffffffffffffffffff83818316178352505050506040516020016104ef93929190611676565b60405160208183030381529060405261025c565b5050505050565b610512610910565b61051a610997565b565b5f8060149054906101000a900460ff16905090565b610539610910565b6105425f6109f8565b565b6003602052805f5260405f205f915054906101000a900460ff1681565b610569610910565b610571610ab9565b565b5f805f9054906101000a900473ffffffffffffffffffffffffffffffffffffffff16905090565b60025481565b6105a8610865565b600254817f000000000000000000000000000000000000000000000000000000000000000073ffffffffffffffffffffffffffffffffffffffff166370a082317f00000000000000000000000000000000000000000000000000000000000000006040518263ffffffff1660e01b815260040161062591906112d7565b602060405180830381865afa158015610640573d5f803e3d5ffd5b505050506040513d601f19601f8201168201806040525081019061066491906116b2565b61066e919061170a565b11156106a6576040517f46cb666300000000000000000000000000000000000000000000000000000000815260040160405180910390fd5b610713837f0000000000000000000000000000000000000000000000000000000000000000837f000000000000000000000000000000000000000000000000000000000000000073ffffffffffffffffffffffffffffffffffffffff16610b1b909392919063ffffffff16565b7f5548c837ab068cf56a2c2479df0882a4922fd203edb7517321831d95078c5f62838383604051610746939291906115c0565b60405180910390a1505050565b61075b610910565b5f73ffffffffffffffffffffffffffffffffffffffff168173ffffffffffffffffffffffffffffffffffffffff16036107cb575f6040517f1e4fbdf70000000000000000000000000000000000000000000000000000000081526004016107c291906112d7565b60405180910390fd5b6107d4816109f8565b50565b7f000000000000000000000000000000000000000000000000000000000000000081565b7f000000000000000000000000000000000000000000000000000000000000000081565b60026001540361085b576040517f3ee5aeb500000000000000000000000000000000000000000000000000000000815260040160405180910390fd5b6002600181905550565b61086d61051c565b156108a4576040517fd93c066500000000000000000000000000000000000000000000000000000000815260040160405180910390fd5b565b5f7f19457468657265756d205369676e6564204d6573736167653a0a3332000000005f5281601c52603c5f209050919050565b5f805f806108e988888888610b9d565b9250925092506108f98282610c84565b829350505050949350505050565b60018081905550565b610918610de6565b73ffffffffffffffffffffffffffffffffffffffff16610936610573565b73ffffffffffffffffffffffffffffffffffffffff161461099557610959610de6565b6040517f118cdaa700000000000000000000000000000000000000000000000000000000815260040161098c91906112d7565b60405180910390fd5b565b61099f610ded565b5f8060146101000a81548160ff0219169083151502179055507f5db9ee0a495bf2e6ff9c91a7834c1ba4fdd244a5e8aa4e537bd38aeae4b073aa6109e1610de6565b6040516109ee91906112d7565b60405180910390a1565b5f805f9054906101000a900473ffffffffffffffffffffffffffffffffffffffff169050815f806101000a81548173ffffffffffffffffffffffffffffffffffffffff021916908373ffffffffffffffffffffffffffffffffffffffff1602179055508173ffffffffffffffffffffffffffffffffffffffff168173ffffffffffffffffffffffffffffffffffffffff167f8be0079c531659141344cd1fd0a4f28419497f9722a3daafe3b4186f6b6457e060405160405180910390a35050565b610ac1610865565b60015f60146101000a81548160ff0219169083151502179055507f62e78cea01bee320cd4e420270b5ea74000d11b0c9f74754ebdbfc544b05a258610b04610de6565b604051610b1191906112d7565b60405180910390a1565b610b97848573ffffffffffffffffffffffffffffffffffffffff166323b872dd868686604051602401610b50939291906115c0565b604051602081830303815290604052915060e01b6020820180517bffffffffffffffffffffffffffffffffffffffffffffffffffffffff8381831617835250505050610e2d565b50505050565b5f805f7f7fffffffffffffffffffffffffffffff5d576e7357a4501ddfe92f46681b20a0845f1c1115610bd9575f600385925092509250610c7a565b5f6001888888886040515f8152602001604052604051610bfc949392919061175b565b6020604051602081039080840390855afa158015610c1c573d5f803e3d5ffd5b5050506020604051035190505f73ffffffffffffffffffffffffffffffffffffffff168173ffffffffffffffffffffffffffffffffffffffff1603610c6d575f60015f801b93509350935050610c7a565b805f805f1b935093509350505b9450945094915050565b5f6003811115610c9757610c9661179e565b5b826003811115610caa57610ca961179e565b5b0315610de25760016003811115610cc457610cc361179e565b5b826003811115610cd757610cd661179e565b5b03610d0e576040517ff645eedf00000000000000000000000000000000000000000000000000000000815260040160405180910390fd5b60026003811115610d2257610d2161179e565b5b826003811115610d3557610d3461179e565b5b03610d7957805f1c6040517ffce698f7000000000000000000000000000000000000000000000000000000008152600401610d7091906112ff565b60405180910390fd5b600380811115610d8c57610d8b61179e565b5b826003811115610d9f57610d9e61179e565b5b03610de157806040517fd78bce0c000000000000000000000000000000000000000000000000000000008152600401610dd891906117cb565b60405180910390fd5b5b5050565b5f33905090565b610df561051c565b610e2b576040517f8dfc202b00000000000000000000000000000000000000000000000000000000815260040160405180910390fd5b565b5f8060205f8451602086015f885af180610e4c576040513d5f823e3d81fd5b3d92505f519150505f8214610e65576001811415610e80565b5f8473ffffffffffffffffffffffffffffffffffffffff163b145b15610ec257836040517f5274afe7000000000000000000000000000000000000000000000000000000008152600401610eb991906112d7565b60405180910390fd5b50505050565b5f604051905090565b5f80fd5b5f80fd5b5f60ff82169050919050565b610eee81610ed9565b8114610ef8575f80fd5b50565b5f81359050610f0981610ee5565b92915050565b5f819050919050565b610f2181610f0f565b8114610f2b575f80fd5b50565b5f81359050610f3c81610f18565b92915050565b5f80fd5b5f80fd5b5f601f19601f8301169050919050565b7f4e487b71000000000000000000000000000000000000000000000000000000005f52604160045260245ffd5b610f9082610f4a565b810181811067ffffffffffffffff82111715610faf57610fae610f5a565b5b80604052505050565b5f610fc1610ec8565b9050610fcd8282610f87565b919050565b5f67ffffffffffffffff821115610fec57610feb610f5a565b5b610ff582610f4a565b9050602081019050919050565b828183375f83830152505050565b5f61102261101d84610fd2565b610fb8565b90508281526020810184848401111561103e5761103d610f46565b5b611049848285611002565b509392505050565b5f82601f83011261106557611064610f42565b5b8135611075848260208601611010565b91505092915050565b5f805f806080858703121561109657611095610ed1565b5b5f6110a387828801610efb565b94505060206110b487828801610f2e565b93505060406110c587828801610f2e565b925050606085013567ffffffffffffffff8111156110e6576110e5610ed5565b5b6110f287828801611051565b91505092959194509250565b5f73ffffffffffffffffffffffffffffffffffffffff82169050919050565b5f611127826110fe565b9050919050565b6111378161111d565b8114611141575f80fd5b50565b5f813590506111528161112e565b92915050565b5f8115159050919050565b61116c81611158565b8114611176575f80fd5b50565b5f8135905061118781611163565b92915050565b5f80604083850312156111a3576111a2610ed1565b5b5f6111b085828601611144565b92505060206111c185828601611179565b9150509250929050565b5f819050919050565b6111dd816111cb565b81146111e7575f80fd5b50565b5f813590506111f8816111d4565b92915050565b5f805f805f60a0868803121561121757611216610ed1565b5b5f61122488828901611144565b9550506020611235888289016111ea565b945050604061124688828901610efb565b935050606061125788828901610f2e565b925050608061126888828901610f2e565b9150509295509295909350565b61127e81611158565b82525050565b5f6020820190506112975f830184611275565b92915050565b5f602082840312156112b2576112b1610ed1565b5b5f6112bf84828501611144565b91505092915050565b6112d18161111d565b82525050565b5f6020820190506112ea5f8301846112c8565b92915050565b6112f9816111cb565b82525050565b5f6020820190506113125f8301846112f0565b92915050565b5f805f6060848603121561132f5761132e610ed1565b5b5f61133c86828701611144565b935050602061134d86828701611144565b925050604061135e868287016111ea565b9150509250925092565b5f819050919050565b5f61138b611386611381846110fe565b611368565b6110fe565b9050919050565b5f61139c82611371565b9050919050565b5f6113ad82611392565b9050919050565b6113bd816113a3565b82525050565b5f6020820190506113d65f8301846113b4565b92915050565b5f6113e682611392565b9050919050565b6113f6816113dc565b82525050565b5f60208201905061140f5f8301846113ed565b92915050565b5f61141f826110fe565b9050919050565b61142f81611415565b8114611439575f80fd5b50565b5f8151905061144a81611426565b92915050565b5f8151905061145e816111d4565b92915050565b5f5b83811015611481578082015181840152602081019050611466565b5f8484015250505050565b5f61149e61149984610fd2565b610fb8565b9050828152602081018484840111156114ba576114b9610f46565b5b6114c5848285611464565b509392505050565b5f82601f8301126114e1576114e0610f42565b5b81516114f184826020860161148c565b91505092915050565b5f805f6060848603121561151157611510610ed1565b5b5f61151e8682870161143c565b935050602061152f86828701611450565b925050604084015167ffffffffffffffff8111156115505761154f610ed5565b5b61155c868287016114cd565b9150509250925092565b5f81519050919050565b5f81905092915050565b5f61158482611566565b61158e8185611570565b935061159e818560208601611464565b80840191505092915050565b5f6115b5828461157a565b915081905092915050565b5f6060820190506115d35f8301866112c8565b6115e060208301856112c8565b6115ed60408301846112f0565b949350505050565b5f819050919050565b5f61161861161361160e846115f5565b611368565b610ed9565b9050919050565b611628816115fe565b82525050565b5f82825260208201905092915050565b5f61164882611566565b611652818561162e565b9350611662818560208601611464565b61166b81610f4a565b840191505092915050565b5f6060820190506116895f8301866112c8565b611696602083018561161f565b81810360408301526116a8818461163e565b9050949350505050565b5f602082840312156116c7576116c6610ed1565b5b5f6116d484828501611450565b91505092915050565b7f4e487b71000000000000000000000000000000000000000000000000000000005f52601160045260245ffd5b5f611714826111cb565b915061171f836111cb565b9250828201905080821115611737576117366116dd565b5b92915050565b61174681610f0f565b82525050565b61175581610ed9565b82525050565b5f60808201905061176e5f83018761173d565b61177b602083018661174c565b611788604083018561173d565b611795606083018461173d565b95945050505050565b7f4e487b71000000000000000000000000000000000000000000000000000000005f52602160045260245ffd5b5f6020820190506117de5f83018461173d565b9291505056fea2646970667358221220b691bf27901d2fd534a921a0aa902a95457a4ebd7d1fb99ccd8c807dae09d0c764736f6c63430008140033608060405234801561000f575f80fd5b5060405161089c38038061089c83398181016040528101906100319190610228565b335f73ffffffffffffffffffffffffffffffffffffffff168173ffffffffffffffffffffffffffffffffffffffff16036100a2575f6040517f1e4fbdf70000000000000000000000000000000000000000000000000000000081526004016100999190610262565b60405180910390fd5b6100b1816100f860201b60201c565b508060015f6101000a81548173ffffffffffffffffffffffffffffffffffffffff021916908373ffffffffffffffffffffffffffffffffffffffff1602179055505061027b565b5f805f9054906101000a900473ffffffffffffffffffffffffffffffffffffffff169050815f806101000a81548173ffffffffffffffffffffffffffffffffffffffff021916908373ffffffffffffffffffffffffffffffffffffffff1602179055508173ffffffffffffffffffffffffffffffffffffffff168173ffffffffffffffffffffffffffffffffffffffff167f8be0079c531659141344cd1fd0a4f28419497f9722a3daafe3b4186f6b6457e060405160405180910390a35050565b5f80fd5b5f73ffffffffffffffffffffffffffffffffffffffff82169050919050565b5f6101e6826101bd565b9050919050565b5f6101f7826101dc565b9050919050565b610207816101ed565b8114610211575f80fd5b50565b5f81519050610222816101fe565b92915050565b5f6020828403121561023d5761023c6101b9565b5b5f61024a84828501610214565b91505092915050565b61025c816101dc565b82525050565b5f6020820190506102755f830184610253565b92915050565b610614806102885f395ff3fe608060405234801561000f575f80fd5b5060043610610055575f3560e01c80631f64e71f14610059578063715018a6146100755780638da5cb5b1461007f578063f2fde38b1461009d578063fc0c546a146100b9575b5f80fd5b610073600480360381019061006e9190610443565b6100d7565b005b61007d610180565b005b610087610193565b6040516100949190610490565b60405180910390f35b6100b760048036038101906100b291906104a9565b6101ba565b005b6100c161023e565b6040516100ce919061052f565b60405180910390f35b6100df610263565b60015f9054906101000a900473ffffffffffffffffffffffffffffffffffffffff1673ffffffffffffffffffffffffffffffffffffffff1663095ea7b383836040518363ffffffff1660e01b815260040161013b929190610557565b6020604051808303815f875af1158015610157573d5f803e3d5ffd5b505050506040513d601f19601f8201168201806040525081019061017b91906105b3565b505050565b610188610263565b6101915f6102ea565b565b5f805f9054906101000a900473ffffffffffffffffffffffffffffffffffffffff16905090565b6101c2610263565b5f73ffffffffffffffffffffffffffffffffffffffff168173ffffffffffffffffffffffffffffffffffffffff1603610232575f6040517f1e4fbdf70000000000000000000000000000000000000000000000000000000081526004016102299190610490565b60405180910390fd5b61023b816102ea565b50565b60015f9054906101000a900473ffffffffffffffffffffffffffffffffffffffff1681565b61026b6103ab565b73ffffffffffffffffffffffffffffffffffffffff16610289610193565b73ffffffffffffffffffffffffffffffffffffffff16146102e8576102ac6103ab565b6040517f118cdaa70000000000000000000000000000000000000000000000000000000081526004016102df9190610490565b60405180910390fd5b565b5f805f9054906101000a900473ffffffffffffffffffffffffffffffffffffffff169050815f806101000a81548173ffffffffffffffffffffffffffffffffffffffff021916908373ffffffffffffffffffffffffffffffffffffffff1602179055508173ffffffffffffffffffffffffffffffffffffffff168173ffffffffffffffffffffffffffffffffffffffff167f8be0079c531659141344cd1fd0a4f28419497f9722a3daafe3b4186f6b6457e060405160405180910390a35050565b5f33905090565b5f80fd5b5f73ffffffffffffffffffffffffffffffffffffffff82169050919050565b5f6103df826103b6565b9050919050565b6103ef816103d5565b81146103f9575f80fd5b50565b5f8135905061040a816103e6565b92915050565b5f819050919050565b61042281610410565b811461042c575f80fd5b50565b5f8135905061043d81610419565b92915050565b5f8060408385031215610459576104586103b2565b5b5f610466858286016103fc565b92505060206104778582860161042f565b9150509250929050565b61048a816103d5565b82525050565b5f6020820190506104a35f830184610481565b92915050565b5f602082840312156104be576104bd6103b2565b5b5f6104cb848285016103fc565b91505092915050565b5f819050919050565b5f6104f76104f26104ed846103b6565b6104d4565b6103b6565b9050919050565b5f610508826104dd565b9050919050565b5f610519826104fe565b9050919050565b6105298161050f565b82525050565b5f6020820190506105425f830184610520565b92915050565b61055181610410565b82525050565b5f60408201905061056a5f830185610481565b6105776020830184610548565b9392505050565b5f8115159050919050565b6105928161057e565b811461059c575f80fd5b50565b5f815190506105ad81610589565b92915050565b5f602082840312156105c8576105c76103b2565b5b5f6105d58482850161059f565b9150509291505056fea2646970667358221220801ae1599d0acf2567aacfa19155221e991410a22b3f5b7739c864559fac588f64736f6c63430008140033","linkReferences":{}},"methodIdentifiers":{"DEPOSIT_LIMIT()":"8decfa77","depositTokensToL2(address,address,uint256)":"bfd4be64","owner()":"8da5cb5b","pause()":"8456cb59","paused()":"5c975abb","renounceOwnership()":"715018a6","sendToL1(uint8,bytes32,bytes32,bytes)":"224cfa2b","setSigner(address,bool)":"31cb6105","signers(address)":"736c0d5b","token()":"fc0c546a","transferOwnership(address)":"f2fde38b","unpause()":"3f4ba83a","vault()":"fbfa77cf","withdrawTokensToL1(address,uint256,uint8,bytes32,bytes32)":"3d0d1628"}}}}}