{"src/TokenFactory.sol":{"TokenFactory":{"abi":[{"type":"constructor","inputs":[],"stateMutability":"nonpayable"},{"type":"function","name":"deployToken","inputs":[{"name":"symbol","type":"string","internalType":"string"},{"name":"contractBytecode","type":"bytes","internalType":"bytes"}],"outputs":[{"name":"addr","type":"address","internalType":"address"}],"stateMutability":"nonpayable"},{"type":"function","name":"getTokenAddressFromSymbol","inputs":[{"name":"symbol","type":"string","internalType":"string"}],"outputs":[{"name":"addr","type":"address","internalType":"address"}],"stateMutability":"view"},{"type":"function","name":"owner","inputs":[],"outputs":[{"name":"","type":"address","internalType":"address"}],"stateMutability":"view"},{"type":"function","name":"renounceOwnership","inputs":[],"outputs":[],"stateMutability":"nonpayable"},{"type":"function","name":"transferOwnership","inputs":[{"name":"newOwner","type":"address","internalType":"address"}],"outputs":[],"stateMutability":"nonpayable"},{"type":"event","name":"OwnershipTransferred","inputs":[{"name":"previousOwner","type":"address","indexed":true,"internalType":"address"},{"name":"newOwner","type":"address","indexed":true,"internalType":"address"}],"anonymous":false},{"type":"event","name":"TokenDeployed","inputs":[{"name":"symbol","type":"string","indexed":false,"internalType":"string"},{"name":"addr","type":"address","indexed":false,"internalType":"address"}],"anonymous":false},{"type":"error","name":"OwnableInvalidOwner","inputs":[{"name":"owner","type":"address","internalType":"address"}]},{"type":"error","name":"OwnableUnauthorizedAccount","inputs":[{"name":"account","type":"address","internalType":"address"}]}],"userdoc":{},"devdoc":{},"evm":{"bytecode":{"object":"608060405234801561000f575f80fd5b50335f73ffffffffffffffffffffffffffffffffffffffff168173ffffffffffffffffffffffffffffffffffffffff1603610081575f6040517f1e4fbdf70000000000000000000000000000000000000000000000000000000081526004016100789190610196565b60405180910390fd5b6100908161009660201b60201c565b506101af565b5f805f9054906101000a900473ffffffffffffffffffffffffffffffffffffffff169050815f806101000a81548173ffffffffffffffffffffffffffffffffffffffff021916908373ffffffffffffffffffffffffffffffffffffffff1602179055508173ffffffffffffffffffffffffffffffffffffffff168173ffffffffffffffffffffffffffffffffffffffff167f8be0079c531659141344cd1fd0a4f28419497f9722a3daafe3b4186f6b6457e060405160405180910390a35050565b5f73ffffffffffffffffffffffffffffffffffffffff82169050919050565b5f61018082610157565b9050919050565b61019081610176565b82525050565b5f6020820190506101a95f830184610187565b92915050565b610881806101bc5f395ff3fe608060405234801561000f575f80fd5b5060043610610055575f3560e01c80633bcb30bb14610059578063715018a6146100895780638da5cb5b14610093578063f2fde38b146100b1578063feccbe48146100cd575b5f80fd5b610073600480360381019061006e91906105e9565b6100fd565b604051610080919061069e565b60405180910390f35b6100916101ab565b005b61009b6101be565b6040516100a8919061069e565b60405180910390f35b6100cb60048036038101906100c691906106e1565b6101e5565b005b6100e760048036038101906100e2919061070c565b610269565b6040516100f4919061069e565b60405180910390f35b5f6101066102af565b8151602083015ff090508060018460405161012191906107bf565b90815260200160405180910390205f6101000a81548173ffffffffffffffffffffffffffffffffffffffff021916908373ffffffffffffffffffffffffffffffffffffffff1602179055507fbf90b5a1ec9763e8bf4b9245cef0c28db92bab309fc2c5177f17814f38246938838260405161019d92919061081d565b60405180910390a192915050565b6101b36102af565b6101bc5f610336565b565b5f805f9054906101000a900473ffffffffffffffffffffffffffffffffffffffff16905090565b6101ed6102af565b5f73ffffffffffffffffffffffffffffffffffffffff168173ffffffffffffffffffffffffffffffffffffffff160361025d575f6040517f1e4fbdf7000000000000000000000000000000000000000000000000000000008152600401610254919061069e565b60405180910390fd5b61026681610336565b50565b5f60018260405161027a91906107bf565b90815260200160405180910390205f9054906101000a900473ffffffffffffffffffffffffffffffffffffffff169050919050565b6102b76103f7565b73ffffffffffffffffffffffffffffffffffffffff166102d56101be565b73ffffffffffffffffffffffffffffffffffffffff1614610334576102f86103f7565b6040517f118cdaa700000000000000000000000000000000000000000000000000000000815260040161032b919061069e565b60405180910390fd5b565b5f805f9054906101000a900473ffffffffffffffffffffffffffffffffffffffff169050815f806101000a81548173ffffffffffffffffffffffffffffffffffffffff021916908373ffffffffffffffffffffffffffffffffffffffff1602179055508173ffffffffffffffffffffffffffffffffffffffff168173ffffffffffffffffffffffffffffffffffffffff167f8be0079c531659141344cd1fd0a4f28419497f9722a3daafe3b4186f6b6457e060405160405180910390a35050565b5f33905090565b5f604051905090565b5f80fd5b5f80fd5b5f80fd5b5f80fd5b5f601f19601f8301169050919050565b7f4e487b71000000000000000000000000000000000000000000000000000000005f52604160045260245ffd5b61045d82610417565b810181811067ffffffffffffffff8211171561047c5761047b610427565b5b80604052505050565b5f61048e6103fe565b905061049a8282610454565b919050565b5f67ffffffffffffffff8211156104b9576104b8610427565b5b6104c282610417565b9050602081019050919050565b828183375f83830152505050565b5f6104ef6104ea8461049f565b610485565b90508281526020810184848401111561050b5761050a610413565b5b6105168482856104cf565b509392505050565b5f82601f8301126105325761053161040f565b5b81356105428482602086016104dd565b91505092915050565b5f67ffffffffffffffff82111561056557610564610427565b5b61056e82610417565b9050602081019050919050565b5f61058d6105888461054b565b610485565b9050828152602081018484840111156105a9576105a8610413565b5b6105b48482856104cf565b509392505050565b5f82601f8301126105d0576105cf61040f565b5b81356105e084826020860161057b565b91505092915050565b5f80604083850312156105ff576105fe610407565b5b5f83013567ffffffffffffffff81111561061c5761061b61040b565b5b6106288582860161051e565b925050602083013567ffffffffffffffff8111156106495761064861040b565b5b610655858286016105bc565b9150509250929050565b5f73ffffffffffffffffffffffffffffffffffffffff82169050919050565b5f6106888261065f565b9050919050565b6106988161067e565b82525050565b5f6020820190506106b15f83018461068f565b92915050565b6106c08161067e565b81146106ca575f80fd5b50565b5f813590506106db816106b7565b92915050565b5f602082840312156106f6576106f5610407565b5b5f610703848285016106cd565b91505092915050565b5f6020828403121561072157610720610407565b5b5f82013567ffffffffffffffff81111561073e5761073d61040b565b5b61074a8482850161051e565b91505092915050565b5f81519050919050565b5f81905092915050565b5f5b83811015610784578082015181840152602081019050610769565b5f8484015250505050565b5f61079982610753565b6107a3818561075d565b93506107b3818560208601610767565b80840191505092915050565b5f6107ca828461078f565b915081905092915050565b5f82825260208201905092915050565b5f6107ef82610753565b6107f981856107d5565b9350610809818560208601610767565b61081281610417565b840191505092915050565b5f6040820190508181035f83015261083581856107e5565b9050610844602083018461068f565b939250505056fea264697066735822122098cd3a564a1b7fe59eeea6651449f03dee8a24a4af0154117a0c8e92ea8ba83964736f6c63430008140033","linkReferences":{}},"methodIdentifiers":{"deployToken(string,bytes)":"3bcb30bb","getTokenAddressFromSymbol(string)":"feccbe48","owner()":"8da5cb5b","renounceOwnership()":"715018a6","transferOwnership(address)":"f2fde38b"}}}}}