{"src/L1Vault.sol":{"L1Vault":{"abi":[{"type":"constructor","inputs":[{"name":"_token","type":"address","internalType":"contract IERC20"}],"stateMutability":"nonpayable"},{"type":"function","name":"approveTo","inputs":[{"name":"target","type":"address","internalType":"address"},{"name":"amount","type":"uint256","internalType":"uint256"}],"outputs":[],"stateMutability":"nonpayable"},{"type":"function","name":"owner","inputs":[],"outputs":[{"name":"","type":"address","internalType":"address"}],"stateMutability":"view"},{"type":"function","name":"renounceOwnership","inputs":[],"outputs":[],"stateMutability":"nonpayable"},{"type":"function","name":"token","inputs":[],"outputs":[{"name":"","type":"address","internalType":"contract IERC20"}],"stateMutability":"view"},{"type":"function","name":"transferOwnership","inputs":[{"name":"newOwner","type":"address","internalType":"address"}],"outputs":[],"stateMutability":"nonpayable"},{"type":"event","name":"OwnershipTransferred","inputs":[{"name":"previousOwner","type":"address","indexed":true,"internalType":"address"},{"name":"newOwner","type":"address","indexed":true,"internalType":"address"}],"anonymous":false},{"type":"error","name":"OwnableInvalidOwner","inputs":[{"name":"owner","type":"address","internalType":"address"}]},{"type":"error","name":"OwnableUnauthorizedAccount","inputs":[{"name":"account","type":"address","internalType":"address"}]}],"userdoc":{},"devdoc":{},"evm":{"bytecode":{"object":"608060405234801561000f575f80fd5b5060405161089c38038061089c83398181016040528101906100319190610228565b335f73ffffffffffffffffffffffffffffffffffffffff168173ffffffffffffffffffffffffffffffffffffffff16036100a2575f6040517f1e4fbdf70000000000000000000000000000000000000000000000000000000081526004016100999190610262565b60405180910390fd5b6100b1816100f860201b60201c565b508060015f6101000a81548173ffffffffffffffffffffffffffffffffffffffff021916908373ffffffffffffffffffffffffffffffffffffffff1602179055505061027b565b5f805f9054906101000a900473ffffffffffffffffffffffffffffffffffffffff169050815f806101000a81548173ffffffffffffffffffffffffffffffffffffffff021916908373ffffffffffffffffffffffffffffffffffffffff1602179055508173ffffffffffffffffffffffffffffffffffffffff168173ffffffffffffffffffffffffffffffffffffffff167f8be0079c531659141344cd1fd0a4f28419497f9722a3daafe3b4186f6b6457e060405160405180910390a35050565b5f80fd5b5f73ffffffffffffffffffffffffffffffffffffffff82169050919050565b5f6101e6826101bd565b9050919050565b5f6101f7826101dc565b9050919050565b610207816101ed565b8114610211575f80fd5b50565b5f81519050610222816101fe565b92915050565b5f6020828403121561023d5761023c6101b9565b5b5f61024a84828501610214565b91505092915050565b61025c816101dc565b82525050565b5f6020820190506102755f830184610253565b92915050565b610614806102885f395ff3fe608060405234801561000f575f80fd5b5060043610610055575f3560e01c80631f64e71f14610059578063715018a6146100755780638da5cb5b1461007f578063f2fde38b1461009d578063fc0c546a146100b9575b5f80fd5b610073600480360381019061006e9190610443565b6100d7565b005b61007d610180565b005b610087610193565b6040516100949190610490565b60405180910390f35b6100b760048036038101906100b291906104a9565b6101ba565b005b6100c161023e565b6040516100ce919061052f565b60405180910390f35b6100df610263565b60015f9054906101000a900473ffffffffffffffffffffffffffffffffffffffff1673ffffffffffffffffffffffffffffffffffffffff1663095ea7b383836040518363ffffffff1660e01b815260040161013b929190610557565b6020604051808303815f875af1158015610157573d5f803e3d5ffd5b505050506040513d601f19601f8201168201806040525081019061017b91906105b3565b505050565b610188610263565b6101915f6102ea565b565b5f805f9054906101000a900473ffffffffffffffffffffffffffffffffffffffff16905090565b6101c2610263565b5f73ffffffffffffffffffffffffffffffffffffffff168173ffffffffffffffffffffffffffffffffffffffff1603610232575f6040517f1e4fbdf70000000000000000000000000000000000000000000000000000000081526004016102299190610490565b60405180910390fd5b61023b816102ea565b50565b60015f9054906101000a900473ffffffffffffffffffffffffffffffffffffffff1681565b61026b6103ab565b73ffffffffffffffffffffffffffffffffffffffff16610289610193565b73ffffffffffffffffffffffffffffffffffffffff16146102e8576102ac6103ab565b6040517f118cdaa70000000000000000000000000000000000000000000000000000000081526004016102df9190610490565b60405180910390fd5b565b5f805f9054906101000a900473ffffffffffffffffffffffffffffffffffffffff169050815f806101000a81548173ffffffffffffffffffffffffffffffffffffffff021916908373ffffffffffffffffffffffffffffffffffffffff1602179055508173ffffffffffffffffffffffffffffffffffffffff168173ffffffffffffffffffffffffffffffffffffffff167f8be0079c531659141344cd1fd0a4f28419497f9722a3daafe3b4186f6b6457e060405160405180910390a35050565b5f33905090565b5f80fd5b5f73ffffffffffffffffffffffffffffffffffffffff82169050919050565b5f6103df826103b6565b9050919050565b6103ef816103d5565b81146103f9575f80fd5b50565b5f8135905061040a816103e6565b92915050565b5f819050919050565b61042281610410565b811461042c575f80fd5b50565b5f8135905061043d81610419565b92915050565b5f8060408385031215610459576104586103b2565b5b5f610466858286016103fc565b92505060206104778582860161042f565b9150509250929050565b61048a816103d5565b82525050565b5f6020820190506104a35f830184610481565b92915050565b5f602082840312156104be576104bd6103b2565b5b5f6104cb848285016103fc565b91505092915050565b5f819050919050565b5f6104f76104f26104ed846103b6565b6104d4565b6103b6565b9050919050565b5f610508826104dd565b9050919050565b5f610519826104fe565b9050919050565b6105298161050f565b82525050565b5f6020820190506105425f830184610520565b92915050565b61055181610410565b82525050565b5f60408201905061056a5f830185610481565b6105776020830184610548565b9392505050565b5f8115159050919050565b6105928161057e565b811461059c575f80fd5b50565b5f815190506105ad81610589565b92915050565b5f602082840312156105c8576105c76103b2565b5b5f6105d58482850161059f565b9150509291505056fea2646970667358221220801ae1599d0acf2567aacfa19155221e991410a22b3f5b7739c864559fac588f64736f6c63430008140033","linkReferences":{}},"methodIdentifiers":{"approveTo(address,uint256)":"1f64e71f","owner()":"8da5cb5b","renounceOwnership()":"715018a6","token()":"fc0c546a","transferOwnership(address)":"f2fde38b"}}}}}